:020000040000FA
:040000000DEF00F010
:0400080026EF0CF0E3
:06001800FF00E7EF0EF00F
:10150000003031323334353637383941424344457F
:10151000465B5741524E494E475D205065616B20F6
:101520007369676E616C20657863656564732041DB
:1015300044432072616E6765005065616B20576996
:101540006E646F7720436C6F736564005065616BE8
:101550002057696E646F77204F70656E005065612B
:101560006B20496E7075743A20006D56000A0D00AC
:031570002E00004A
:1015740060007CFF36F5600080FF37F536280F0EDB
:101584003758D8A0C8EF0AF0CAEF0AF0D2EF0AF031
:10159400110E2C6E150E2D6E010E2E6E2FEC0DF00D
:1015A400D8903730336E3630366E33C537F55D0E2E
:1015B4002C6E150E2D6E000E2E6E2FEC0DF0E80E17
:1015C400365C030E3758D8A0EAEF0AF0ECEF0AF0C5
:1015D40048EF0BF0360E256E050E266E030E286EB0
:1015E400E80E276E2CEC0EF02550300F356E350EBC
:1015F400266E050E276E010E286E02EC0EF0700E9C
:10160400266E150E276E010E286E02EC0EF0360EB5
:10161400256E050E266E000E286E640E276E2CECC9
:101624000EF02550300F356E350E266E050E276EE2
:10163400010E286E02EC0EF0360E256E050E266E97
:10164400000E286E0A0E276E2CEC0EF02550300F7B
:10165400356E350E266E050E276E010E286E02ECD1
:101664000EF03650300F356E350E266E050E276E91
:10167400010E286E02EC0EF06B0E2C6E150E2D6E04
:10168400010E2E6E2FEC0DF0B2EF0BF0375009E186
:10169400640E365CD8A051EF0BF053EF0BF07FEFE4
:1016A4000BF0360E256E050E266E000E286E640EA7
:1016B400276E2CEC0EF02550300F356E350E266E4D
:1016C400050E276E010E286E02EC0EF0360E256E06
:1016D400050E266E000E286E0A0E276E2CEC0EF0F8
:1016E4002550300F356E350E266E050E276E010E11
:1016F400286E02EC0EF09FEF0BF0375009E10A0E52
:10170400365CD8A088EF0BF08AEF0BF09FEF0BF05C
:10171400360E256E050E266E000E286E0A0E276EF6
:101724002CEC0EF02550300F356E350E266E050E5E
:10173400276E010E286E02EC0EF03650300F356E17
:10174400350E266E050E276E010E286E02EC0EF085
:101754006A0E2C6E150E2D6E010E2E6E2FEC0DF0F2
:101764001200B2EC0FF03A6E06EF0CF0000170AD0F
:10177400BEEF0BF0C0EF0BF023EF0CF06BEC0FF0AF
:10178400010E98EC0FF023EF0CF0020E98EC0FF022
:10179400BE844C0E2C6E150E2D6E010E2E6E2FEC8B
:1017A4000DF0A0EC0FF023EF0CF0000170BDDDEFA5
:1017B4000BF0DFEF0BF023EF0CF06BEC0FF0030EEC
:1017C40098EC0FF023EF0CF0000E98EC0FF0BE94A1
:1017D400BAEC0AF0000E286E000E276E2EEC0FF005
:1017E400390E2C6E150E2D6E010E2E6E2FEC0DF093
:1017F4006D0E266E150E276E020E286E02EC0EF08C
:101804009CEC0FF023EF0CF03A50386E396A3950E3
:10181400000AD8B410EF0CF023EF0CF03850000A93
:10182400D8B4B8EF0BF0010AD8B4C7EF0BF0030A31
:10183400D8B4D7EF0BF0010AD8B4E6EF0BF023EFDE
:101844000CF0ACEC0FF01200ACA22BEF0CF02DEF6F
:101854000CF042EF0CF0B7A232EF0CF034EF0CF0C6
:1018640042EF0CF002D840EF0CF00500FA6E415044
:10187400FD6E4250FE6EFF6AFA50120082EF0CF0C9
:10188400ACA047EF0CF049EF0CF05EEF0CF0B7A002
:101894004EEF0CF050EF0CF05EEF0CF002D85CEF62
:1018A4000CF00500FA6E4350FD6E4450FE6EFF6A64
:1018B400FA50120082EF0CF0A9A863EF0CF065EF68
:1018C4000CF070EF0CF0B4A86AEF0CF06CEF0CF0B5
:1018D40070EF0CF075EC0EF082EF0CF0AAA075EF2F
:1018E4000CF077EF0CF082EF0CF0B5A07CEF0CF06D
:1018F4007EEF0CF082EF0CF090EC0EF082EF0CF027
:101904001100010E1E24D96EDA6A050EDA22000EC9
:10191400DF6E0201B2A791EF0CF093EF0CF0A6EF8B
:101924000CF0010E1E24D96EDA6A050EDA22DF826B
:1019340002D8A6EF0CF00500FA6E3F50FD6E405041
:10194400FE6EFF6AFA5012000201B2A3ACEF0CF073
:10195400AEEF0CF0C1EF0CF0010E1E24D96EDA6A62
:10196400050EDA22DF8402D8C1EF0CF00500FA6E0E
:101974003D50FD6E3E50FE6EFF6AFA501200010E9D
:101984001E24D96EDA6A050EDA22DF50D8B4CDEF00
:101994000CF0CFEF0CF0DDEF0CF002D8DBEF0CF025
:1019A4000500FA6E3B50FD6E3C50FE6EFF6AFA5025
:1019B4001200DFEF0CF0D2EC0EF01200AC90060E29
:1019C400256E190E266E75EC0FF0AC92A80E256EDE
:1019D4001C0E266E70EC0FF0000E0201A56F000EB7
:1019E400A66F000EA76F000EA86F000EA96F000E61
:1019F400AA6FA00EAB6F800EAC6F000EAD6F820E9F
:101A0400AE6F060EAF6F000EB06F000EB16F000E1A
:101A1400B26F000EB36F6E0E256E1F0E266E7FEC36
:101A24000FF06C0E256E1F0E266E7AEC0FF05E0E14
:101A3400256E1F0E266E84EC0FF0000E1B6E000E3A
:101A4400206E000E1F6E080E476E000E1E6E000EF6
:101A54001D6E000E1C6EAC801200000E326E000E65
:101A6400316E48EF0DF031502C242F6E32502D2062
:101A7400306E6100BCF4F6F46100C0F4F7F4F86A67
:101A84000800F550A8EC0DF0314A322A31502C24CC
:101A94002F6E32502D20306E6100BCF4F6F46100DC
:101AA400C0F4F7F4F86A0800F5500009D8A45DEF13
:101AB4000DF05FEF0DF035EF0DF02E50D8A465EF6B
:101AC4000DF067EF0DF069EF0DF071EF0DF06D0E95
:101AD400266E150E276E020E286E02EC0EF0120012
:101AE400000E0301D96F000EDA6F000EDB6F000EDB
:101AF400DC6F000EDF6F000EE06F000EE56F000E6E
:101B0400E76F000EEC6F090EEE6F010EEF6F000E23
:101B1400F06F000EF16F000EF26F000EF46F000E06
:101B2400F56F1E0EF66F000EF76F030EF86F000EC2
:101B3400F96F0F0EFA6FC40EF36FB590AA80720E90
:101B4400256E1E0E266E89EC0FF01200256E47508E
:101B5400D8B4AFEF0DF0B1EF0DF0A9EF0DF0ACB2CA
:101B6400B6EF0DF0B8EF0DF0BDEF0DF0610094F499
:101B7400A3F2D3EF0DF0AC92110E2024D96EDA6AE1
:101B8400050EDA22610094F4DFF4202A070E2064A3
:101B9400CEEF0DF0D0EF0DF0D2EF0DF0000E206E71
:101BA4004706AC821200000EBE6E800EBF6E000EA1
:101BB400C06E3B0EC66E700EC76EC8680401106915
:101BC400700E086F230E006F000E096F000E016F78
:101BD400000E116F000E026F000E0A6F000E126FDE
:101BE400370E036FF00E0B6F13693F0E046FF00E88
:101BF4000C6F1469100E0201106F040E726F120044
:101C0400000E2B6E22EF0EF02B502624296E000EB0
:101C140027202A6E6100A4F4F6F46100A8F4F7F416
:101C2400000EF86E140EF76403D00800F55005D0CA
:101C3400F6C4E9F4F7C4EAF4EF50A8EC0DF02B2A4B
:101C440028502B5CD8A029EF0EF02BEF0EF006EFF6
:101C54000EF01200000E2C6E000E2B6E3EEF0EF0F6
:101C6400610094F4D9F4610098F4DAF42750DE5E4C
:101C74002850DD5A2B4A2C2A610094F4D9F46100CF
:101C840098F4DAF42750DE5C2850DE58D8B04DEFD3
:101C94000EF04FEF0EF032EF0EF02BC525F52CC5EC
:101CA40026F51200080E47605AEF0EF05CEF0EF0B6
:101CB40073EF0EF0110E1F24D96EDA6A050EDA22C4
:101CC400DF500201A36F1F2A070E1F646CEF0EF092
:101CD4006EEF0EF070EF0EF0000E1F6E472A74EFD9
:101CE4000EF0AC921200000171A37BEF0EF07DEFB9
:101CF4000EF082EF0EF0010EA8EC0FF08CEF0EF058
:101D040071A187EF0EF089EF0EF08CEF0EF0030E49
:101D1400A8EC0FF093EC0FF0B4981200B590455076
:101D24004610D8B498EF0EF09AEF0EF0A6EF0EF02E
:101D340002D8A6EF0EF00500FA6E4550FD6E46502F
:101D4400FE6EFF6AFA5012001200BDEC0EF07F0E18
:101D54008EEC0FF0B498D68E000E286E000E276E0F
:101D64002EEC0FF08D0E4FEC0FF0B3EC0BF0B7EF41
:101D74000EF00DEF00F0B4EC0FF0F7EC0EF0D5EC34
:101D84000DF005EC0FF0A4EC0FF065EC0FF021EC76
:101D94000FF072EC0DF0E0EC0CF013EC0FF012000D
:101DA400090E1E24D96EDA6A050EDA22A1C2DFF406
:101DB4001E2A070E1E64E1EF0EF0E3EF0EF0E5EFCE
:101DC4000EF0000E1E6E1C2A120001EE01F1200E10
:101DD400EE6AE806FDE10401080E5D6F000E5E6F19
:101DE400000E5F6F0001A7EF0EF0000E0001636F9D
:101DF400000E646F000E656F000E666F000E676F55
:101E0400000E686F1200600E0001AD6F000EAF6F20
:101E1400000EB36F080EB16F000EB06F000EAC6F02
:101E240012003F0E0001A46F120EA56F800EA66F64
:101E3400000EA76F000EA96F800EA36F1200A99861
:101E4400920E0001706F030E716F020E726F050E19
:101E5400736FB498A98812000301F39127C525F57F
:101E640028C526F557EC0FF00301F381120060003A
:101E7400A8FF23F56000ACFF24F544EC0FF0030148
:101E8400F79D12000301F39123C521F524C522F522
:101E94005EEC0FF00301F3811200256E610094F4EF
:101EA400ECF30301F38FF381120026500301E06F7A
:101EB400610094F4DFF3120022500301E06F61002B
:101EC40084F4DFF31200880E0001A26F7F0EA06F6E
:101ED4001200000171937191B498120025C541F567
:101EE40026C542F5120025C543F526C544F5120062
:101EF40025C53DF526C53EF5120025C53FF526C589
:101F040040F5120025C53BF526C53CF5120025C554
:101F140045F526C546F51200256E610094F4A0F03F
:101F24001200000171937191B4981200256E25C5B9
:101F340019F512000001719171831200000171936F
:101F440071811200870E0301D76F1200216E21C523
:101F540019F5120019C51AF51200D2EC0EF0120090
:0C1F64001A501200D69A1200120012004F
:020000040020DA
:10000000FF0FFF0FFF0FFF0FFF0FFF0FFF0FFF0F80
:10001000FF0FFF0FFF0FFF0FFF0FFF0FFF0FFF0F70
:020000040030CA
:0A0000008CFFF7FF9FFFFFFFFFFFDB
:00000001FF
