:020000040000FA
:040000000DEF00F010
:040008006EEF0CF09B
:06001800FF0074EF0DF083
:10150000005B5741524E494E475D205065616B204C
:101510007369676E616C20657863656564732041EB
:1015200044432072616E6765005065616B205769A6
:101530006E646F7720436C6F736564005065616BF8
:101540002057696E646F77204F70656E005065613B
:101550006B20496E7075743A20006D56000A0D00BC
:031560002E00005A
:1015640060007CFF34F5600080FF35F534280F0EF1
:10157400355805E3010EF2EC0BF002EC0DF0D890B7
:101584003530316E3430346E31C535F54D0E2C6E38
:101594002D6A02EC0DF0E80E345C030E35584FE36F
:1015A400C6D8030E286EE80E276E2B6A2C6A06D066
:1015B400610094F4D9F4A8D82B4A2C2A9AD8D8B02C
:1015C400F7D7AAD825508CD8E0EC0CF0600E266E24
:1015D4002650D8A4150E276E010E286EE0EC0CF0F0
:1015E400A6D8286A640E276E2B6A2C6A06D061007E
:1015F40094F4D9F489D82B4A2C2A7BD8D8B0F7D7BD
:101604008BD825506DD8E0EC0CF0340E256E89D8BB
:101614002B6A2C6A06D0610094F4D9F475D82B4A4D
:101624002C2A67D8D8B0F7D777D8255059D8E0EC0A
:101634000CF0345055D8E0EC0CF05B0E4DD0355026
:1016440003E1640E345C2AE372D8286A640E276EC0
:101654002B6A2C6A06D0610094F4D9F455D82B4A2D
:101664002C2A47D8D8B0F7D757D8255039D8E0EC2A
:101674000CF0340E256E55D82B6A2C6A06D0610006
:1016840094F4D9F441D82B4A2C2A33D8D8B0F7D7BC
:1016940043D8255025D8E0EC0CF019D0355003E19F
:1016A4000A0E345C14E3340E256E3BD82B6A2C6A84
:1016B40006D0610094F4D9F427D82B4A2C2A19D8DF
:1016C400D8B0F7D729D825500BD8E0EC0CF034501B
:1016D40007D8E0EC0CF05A0EF2EC0BF002EF0DF030
:1016E400300F336E330E266E050E276E010E286EF4
:1016F400010C610094F4D9F4610098F4DAF42750F1
:10170400DE5C2850DE581200610098F4DAF42750A9
:10171400DE5E2850DD5A12002BC525F52CC526F5B2
:101724001200050E266E286A0A0E276E0A0C340E65
:10173400256E050E266E120055EC0EF0386E36D06E
:10174400000170AD52EF0EF057EC0EF0010E3EECBE
:101754000EF052EF0EF0020E3EEC0EF0BE843C0E84
:101764003FD802EC0DF046EC0EF052EF0EF0000103
:1017740070BD52EF0EF057EC0EF0030E3EEC0EF07F
:1017840052EF0EF0000E3EEC0EF0BE94B2EC0AF0F6
:101794002BD8C9EC0DF0290E23D802EC0DF017D884
:1017A400E0EC0CF042EC0EF052EF0EF03850366ED6
:1017B400376A375002E052EF0EF03650C1E0010AAA
:1017C400CAE0030AD4E0010ADDE052EF0EF05D0E38
:1017D400266E2650D8A4150E276E020E286E020C13
:1017E4002C6E010E2D6E010C286A276A000CAC9039
:1017F4006E0E256E180E266E20EC0EF0AC92700E56
:10180400256E1A0E266E1BEC0EF00201A56BA66B5C
:10181400A76BA86BA96BAA6BA00EAB6F800EAC6F05
:10182400AD6B820EAE6F060EAF6FB06BB16BB26B69
:10183400B36BBC0E256E1C0E266E2AEC0EF0BA0E8F
:10184400256E1C0E266E25EC0EF0B60E256E1C0EB3
:10185400266E2FEC0EF01B6A206A1F6A080E456E76
:101864001E6A1D6A1C6AAC8012002FD8DF6A02014E
:10187400B2A70DD02AD8DF8201D809D00500FA6EAC
:101884003D50FD6E3E50FE6EFF6AFA50120002019A
:10189400B2A30DD01AD8DF8401D809D00500FA6E9E
:1018A4003B50FD6E3C50FE6EFF6AFA5012000DD89C
:1018B400DF5002E194EF0DF00500FA6E3950FD6E31
:1018C4003A50FE6EFF6AFA501200010E1E24D96EC1
:1018D400DA6A050EDA221200ACB2B7A20BD001D834
:1018E40011000500FA6E3F50FD6E4050FE6EFF6A17
:1018F400FA501200ACB0B7A00BD001D8110005000B
:10190400FA6E4150FD6E4250FE6EFF6AFA501200AC
:10191400A9B8B4A803D084EC0DF01100AAB0B5A006
:101924001100A3EC0DF01100BE6A800EBF6EC06AF8
:101934003B0EC66E700EC76EC86804011069700E47
:10194400086F230E006F096B016B116B026B0A6B3E
:10195400126B370E036FF00E0B6F13693F0E046F9B
:10196400F00E0C6F1469100E0201106F040E726FEA
:10197400040C0301D96BDA6BDB6BDC6BDF6BE06BA4
:10198400E56BE76BEC6B090EEE6F010EEF6FF06B1E
:10199400F16BF26BF46BF56B1E0EF66FF76B030EC7
:1019A400F86FF96B0F0EFA6FC40EF36FB590AA803F
:1019B400BA0E256E1B0E266E34EF0EF02B6A1CD069
:1019C4002B502624296E000E27202A6E6100A4F4D1
:1019D400F6F46100A8F4F7F4000EF86E140EF76440
:1019E40003D00800F55005D0F6C4D9F4F7C4DAF4EE
:1019F400DF501FEC0DF02B2A28502B5CE1E3120082
:101A04002F6A306A05D00DD81FEC0DF02F4A302A0A
:101A140008D8F9E12D5001E11200E9EC0BF0E0EFF8
:101A24000CF02C502F242E6E6100B8F4F6F4150E31
:101A3400F76EF86A0800F5501200256E4550FEE076
:101A4400ACB204D0610094F4A3F20ED0AC92110EA7
:101A540020244AEC0DF0610094F4DFF4202A070EF0
:101A6400206401D0206A4506AC821200080E45604D
:101A74000DD0110E1F240CD8DF500201A36F1F2AB2
:101A8400070E1F6401D01F6A452A1200AC9212008F
:101A9400D96EDA6A050EDA22120059EC0EF0F1EC76
:101AA4000DF096EC0CF0D3EC0DF04AEC0EF00FECCC
:101AB4000EF0BDEC0DF0BBEC0CF0F9EC0BF0B1EF5B
:101AC4000DF04FEC0DF07F0E39EC0EF0B498D68E7D
:101AD400F6EC0BF0C9EC0DF08D0EF9EC0DF09EEC6C
:101AE4000BF0FDD701EE01F1200EEE6AE806FDE1F0
:101AF4000401080E5D6F000E5E6F000E5F6F000143
:101B040063EF0DF0000171A304D0010E4EEC0EF052
:101B140005D071A103D0030E4EEC0EF015EC0EF0BF
:101B2400B4981200090E1E24D96EDA6A050EDA2260
:101B3400A1C2DFF41E2A070E1E6401D01E6A1C2AED
:101B44001200B59043504410D8B412000500FA6E48
:101B54004350FD6E4450FE6EFF6AFA5012003F0E71
:101B64000001A46F120EA56F800EA66FA76BA96B60
:101B7400800EA36F800CA998920E706F030E716F84
:101B8400020E726F050E736FB498A988050C0301D9
:101B9400F39127C525F528C526F501EC0EF0F38150
:101BA4001200600E0001AD6FAF6BB36B080EB16F26
:101BB400B06BAC6B12006000A8FF23F56000ACFFB3
:101BC40024F5E7EC0DF0F79D12000301F39123C512
:101BD40021F524C522F508EC0EF0F3811200000172
:101BE400636B646B656B666B676B686B1200256E69
:101BF400610094F4ECF30301F38FF38112006100AC
:101C040098F4E0F3610094F4DFF31200610088F4C7
:101C1400E0F3610084F4DFF31200880E0001A26F88
:101C24007F0EA06F7F0C000100D071937191B49866
:101C3400120025C53FF526C540F5120025C541F51E
:101C440026C542F5120025C53BF526C53CF5120014
:101C540025C53DF526C53EF5120025C539F526C531
:101C64003AF5120025C543F526C544F51200256E44
:101C7400610094F4A0F01200256E25C519F5120038
:101C8400000171917183120000017193718112003E
:101C9400870E0301D76F870C216E21C519F5120039
:101CA40019C51AF512001A50120017EF0EF0D69A41
:0A1CB400120094EF0DF01200120070
:020000040020DA
:10000000FF0FFF0FFF0FFF0FFF0FFF0FFF0FFF0F80
:10001000FF0FFF0FFF0FFF0FFF0FFF0FFF0FFF0F70
:020000040030CA
:0A0000008CFFF7FF9FFFFFFFFFFFDB
:00000001FF
